{
  "contractName": "Faucet",
  "abi": [
    {
      "inputs": [],
      "name": "numOfFunders",
      "outputs": [
        {
          "internalType": "uint256",
          "name": "",
          "type": "uint256"
        }
      ],
      "stateMutability": "view",
      "type": "function",
      "constant": true
    },
    {
      "inputs": [],
      "name": "owner",
      "outputs": [
        {
          "internalType": "address",
          "name": "",
          "type": "address"
        }
      ],
      "stateMutability": "view",
      "type": "function",
      "constant": true
    },
    {
      "stateMutability": "payable",
      "type": "receive",
      "payable": true
    },
    {
      "inputs": [],
      "name": "addFunds",
      "outputs": [],
      "stateMutability": "payable",
      "type": "function",
      "payable": true
    },
    {
      "inputs": [
        {
          "internalType": "uint256",
          "name": "withdrawAmount",
          "type": "uint256"
        }
      ],
      "name": "withdraw",
      "outputs": [],
      "stateMutability": "nonpayable",
      "type": "function"
    },
    {
      "inputs": [],
      "name": "getAllFunders",
      "outputs": [
        {
          "internalType": "address[]",
          "name": "",
          "type": "address[]"
        }
      ],
      "stateMutability": "view",
      "type": "function",
      "constant": true
    },
    {
      "inputs": [
        {
          "internalType": "uint8",
          "name": "index",
          "type": "uint8"
        }
      ],
      "name": "getFunderAtIndex",
      "outputs": [
        {
          "internalType": "address",
          "name": "",
          "type": "address"
        }
      ],
      "stateMutability": "view",
      "type": "function",
      "constant": true
    }
  ],
  "bytecode": "0x608060405234801561001057600080fd5b50336000806101000a81548173ffffffffffffffffffffffffffffffffffffffff021916908373ffffffffffffffffffffffffffffffffffffffff16021790555061086c806100606000396000f3fe6080604052600436106100595760003560e01c80630a93cf33146100655780632e1a7d4d146100a25780636fbbb55d146100cb5780638da5cb5b146100f6578063a26759cb14610121578063af7f2c9b1461012b57610060565b3661006057005b600080fd5b34801561007157600080fd5b5061008c600480360381019061008791906104c7565b610156565b6040516100999190610535565b60405180910390f35b3480156100ae57600080fd5b506100c960048036038101906100c49190610586565b610196565b005b3480156100d757600080fd5b506100e061022d565b6040516100ed9190610671565b60405180910390f35b34801561010257600080fd5b5061010b610327565b6040516101189190610535565b60405180910390f35b61012961034b565b005b34801561013757600080fd5b50610140610483565b60405161014d91906106a2565b60405180910390f35b6000600360008360ff16815260200190815260200160002060009054906101000a900473ffffffffffffffffffffffffffffffffffffffff169050919050565b8067016345785d8a00008111156101e2576040517f08c379a00000000000000000000000000000000000000000000000000000000081526004016101d990610740565b60405180910390fd5b3373ffffffffffffffffffffffffffffffffffffffff166108fc839081150290604051600060405180830381858888f19350505050158015610228573d6000803e3d6000fd5b505050565b6060600060015467ffffffffffffffff81111561024d5761024c610760565b5b60405190808252806020026020018201604052801561027b5781602001602082028036833780820191505090505b50905060005b60015481101561031f576003600082815260200190815260200160002060009054906101000a900473ffffffffffffffffffffffffffffffffffffffff168282815181106102d2576102d161078f565b5b602002602001019073ffffffffffffffffffffffffffffffffffffffff16908173ffffffffffffffffffffffffffffffffffffffff16815250508080610317906107ed565b915050610281565b508091505090565b60008054906101000a900473ffffffffffffffffffffffffffffffffffffffff1681565b6000339050600260008273ffffffffffffffffffffffffffffffffffffffff1673ffffffffffffffffffffffffffffffffffffffff16815260200190815260200160002060009054906101000a900460ff1661048057600160008154809291906103b4906107ed565b91905055506000600160008154809291906103ce906107ed565b9190505590506001600260008473ffffffffffffffffffffffffffffffffffffffff1673ffffffffffffffffffffffffffffffffffffffff16815260200190815260200160002060006101000a81548160ff021916908315150217905550816003600083815260200190815260200160002060006101000a81548173ffffffffffffffffffffffffffffffffffffffff021916908373ffffffffffffffffffffffffffffffffffffffff160217905550505b50565b60015481565b600080fd5b600060ff82169050919050565b6104a48161048e565b81146104af57600080fd5b50565b6000813590506104c18161049b565b92915050565b6000602082840312156104dd576104dc610489565b5b60006104eb848285016104b2565b91505092915050565b600073ffffffffffffffffffffffffffffffffffffffff82169050919050565b600061051f826104f4565b9050919050565b61052f81610514565b82525050565b600060208201905061054a6000830184610526565b92915050565b6000819050919050565b61056381610550565b811461056e57600080fd5b50565b6000813590506105808161055a565b92915050565b60006020828403121561059c5761059b610489565b5b60006105aa84828501610571565b91505092915050565b600081519050919050565b600082825260208201905092915050565b6000819050602082019050919050565b6105e881610514565b82525050565b60006105fa83836105df565b60208301905092915050565b6000602082019050919050565b600061061e826105b3565b61062881856105be565b9350610633836105cf565b8060005b8381101561066457815161064b88826105ee565b975061065683610606565b925050600181019050610637565b5085935050505092915050565b6000602082019050818103600083015261068b8184610613565b905092915050565b61069c81610550565b82525050565b60006020820190506106b76000830184610693565b92915050565b600082825260208201905092915050565b7f43616e6e6f74207769746864726177206d6f7265207468616e20302e3120657460008201527f6865720000000000000000000000000000000000000000000000000000000000602082015250565b600061072a6023836106bd565b9150610735826106ce565b604082019050919050565b600060208201905081810360008301526107598161071d565b9050919050565b7f4e487b7100000000000000000000000000000000000000000000000000000000600052604160045260246000fd5b7f4e487b7100000000000000000000000000000000000000000000000000000000600052603260045260246000fd5b7f4e487b7100000000000000000000000000000000000000000000000000000000600052601160045260246000fd5b60006107f882610550565b91507fffffffffffffffffffffffffffffffffffffffffffffffffffffffffffffffff82141561082b5761082a6107be565b5b60018201905091905056fea26469706673582212204f06bef35aba54bd61867c27f1aaf3f856447b729128df62cab9370eb2a9c1ca64736f6c634300080b0033",
  "immutableReferences": {},
  "source": "// SPDX-License-Identifier: MIT\npragma solidity >=0.4.22 <0.9.0;\nimport \"./Owned.sol\";\n\ncontract Faucet is Owned {\n    // uint256 public funds = 1000;\n\n    uint256 public numOfFunders;\n\n    mapping(address => bool) private funders;\n    mapping(uint256 => address) private lutFunders;\n\n    modifier limitWithdraw(uint256 withdrawAmount) {\n        require(\n            withdrawAmount <= 100000000000000000,\n            \"Cannot withdraw more than 0.1 ether\"\n        );\n        _;\n    }\n\n    receive() external payable {}\n\n    function addFunds() external payable {\n        address funder = msg.sender;\n\n        if (!funders[funder]) {\n            numOfFunders++;\n            uint256 index = numOfFunders++;\n            funders[funder] = true;\n            lutFunders[index] = funder;\n        }\n    }\n\n    function withdraw(uint256 withdrawAmount)\n        external\n        limitWithdraw(withdrawAmount)\n    {\n        payable(msg.sender).transfer(withdrawAmount);\n    }\n\n    function getAllFunders() external view returns (address[] memory) {\n        address[] memory _funders = new address[](numOfFunders);\n\n        for (uint256 i = 0; i < numOfFunders; i++) {\n            _funders[i] = lutFunders[i];\n        }\n\n        return _funders;\n    }\n\n    function getFunderAtIndex(uint8 index) external view returns (address) {\n        return lutFunders[index];\n    }\n}\n",
  "sourcePath": "/Volumes/Storage/Programming/blockchain/faucet/contracts/FaucetContract.sol",
  "compiler": {
    "name": "solc",
    "version": "0.8.11+commit.d7f03943.Emscripten.clang"
  },
  "schemaVersion": "3.4.5",
  "updatedAt": "2022-03-09T08:10:11.859Z",
  "networkType": "ethereum",
  "devdoc": {
    "kind": "dev",
    "methods": {},
    "version": 1
  },
  "userdoc": {
    "kind": "user",
    "methods": {},
    "version": 1
  }
}